:100000000CEF08F00000000000EF00F0000000001E
:0A0010000000000000000000F3D71C
:10001C000B840BAE19EF00F0010E036E026A016A3D
:0A002C00006A0A360232FF0E1200CD
:080036000AAE029E000E12004A
:0C003E00020E0D6E0D2EFED70000120009
:10004A003A0E0C6E230E0D6E0D2EFED70C2EFCD71B
:02005A00120092
:0A005C00850E0D6E0D2EFED712006A
:0E006600026A016A006A086A036A000E12004C
:100074000B820BAE44EF00F003680268016800686D
:080084000A360232FF0E1200E1
:10008C00086A096A100E0C6E0134083609360450E1
:10009C00085E0550D8A0053C095ED8B007D00450C6
:1000AC0008260550D8B0053C0926D89000360136F4
:0600BC000C2EEAD7120031
:1000C2000CB0A3EF00F00CA249EF01F00E6A000E93
:1000D2000264BAEF00F0F00E0214D8A485EF00F02B
:1000E200023A01380F0B02260138F00B016E00387C
:1000F2000F0B01260038F00B006E08380F0B00269C
:100102000838F00B086E0E84D89002BE9EEF00F005
:1001120008360036013602360E2A02BE9EEF00F085
:1001220008360036013602360E2A02BE9EEF00F075
:1001320008360036013602360E2A0E5003643FEFAF
:1001420001F0035E0BBC08AE44EF01F0D880800ED4
:1001520008640030000E002201220222D8A044EFDF
:1001620001F0023201320032034A49EF01F044EF5A
:1001720001F001C002F000C001F008C000F0086AFE
:10018200000E0E860264F1EF00F0F00E0214D8A405
:10019200D9EF00F0023A01380F0B02260138F00BBA
:1001A200016E00380F0B01260038F00B006E0E8432
:1001B200D89002BE9EEF00F00036013602360E2ABB
:1001C20002BE9EEF00F00036013602360E2A02BE53
:1001D2009EEF00F00036013602360E2A9EEF00F046
:1001E20001C002F000C001F0006A000E0E960E88F7
:1001F20002641EEF01F0F00E0214D8A409EF01F020
:10020200023A01380F0B02260138F00B016E0E8400
:10021200D89002BE9EEF00F0013602360E2A02BED0
:100222009EEF00F0013602360E2A02BE9EEF00F06B
:10023200013602360E2A9EEF00F001C002F0016A7A
:10024200000E0E8602644EEF01F0F00E0214D8A4E6
:100252002DEF01F0023A0E84D89002BE9EEF00F01C
:1002620002360E2A02BE9EEF00F002360E2A02BEAF
:100272009EEF00F002360E2A9EEF00F0010E0C6E89
:10028200CCDE51EF01F0020E0C6ED4DE51EF01F024
:10029200040E0C6EEEDE51EF01F0080E0C6EE2DE83
:0202A200120048
:1002A4000001CBBF02D08A9601D08A86CBBD02D092
:1002B4008A9401D08A84CBBB02D08A9201D08A82EC
:1002C400CBB902D08A9001D08A80B5B102D08A8895
:1002D40001D08A988A8AB1DE8A9ACBB702D08A96EC
:1002E40001D08A86CBB502D08A9401D08A84CBB35C
:1002F40002D08A9201D08A82CBB102D08A9001D0F6
:100304008A80B5B102D08A8801D08A988A8A95DE1B
:0E0314008A9AB5A102D097DE01D09EDE1200BB
:100322000001C86B050EC85D0AE2C851C625E16E20
:10033200000EC721E26E200EE66EC82BF3D7C8511D
:10034200C625E16E000EC721E26EE66AC807C851F3
:10035200C625C96F000EC721CA6F0A0E046E000EB1
:10036200056EC4C000F0C5C001F08FDE08C000F009
:1003720009C001F0300E0026C9C0E1FFCAC0E2FF89
:1003820000C0E6FF0A0E046E000E056EC4C000F047
:10039200C5C001F07ADE00C0C4F001C0C5F0000E95
:1003A200011802E1000E001801E102D0C807CFD700
:0203B200120037
:0C03B4003A0E0D6E0D2EFED70000120058
:1003C0000C6A0E6A0250D8A4F9EF01F001C002F0E5
:1003D00000C001F0006A0E860250D8A4F9EF01F0C7
:1003E00001C002F0016A0E960E880250D8B40BEFDD
:1003F00002F00E50035ED8A4D8A010EF02F0D890FF
:1004000002BE15EF02F0003601360236032E00EF71
:1004100002F010EF02F0010E0C6E25DE18EF02F074
:10042000020E0C6EFBDD18EF02F0040E0C6E03DE04
:020430001200B8
:100432000B800BAE25EF02F0026A0AAEFF0E026ECF
:0C044200016E006E0A360232FF0E12003E
:10044E00025006180E6E086A096A0B6A035007649A
:10045E001AEF03F006500A6E068E028E03500B6ED4
:10046E000750036E000E0B646AEF02F00B50075E2E
:10047E00D8B40BEF03F0070E0764D9EF02F0075E56
:10048E0000C008F001C000F002C001F0026A074E81
:10049E000BEF03F00764AEEF02F0075E00C008F04A
:1004AE0001C000F0016A074E0BEF03F007648CEFFA
:1004BE0002F0075E00C008F0006A074E0BEF03F073
:1004CE00076473EF02F00AC002F005C001F004C029
:1004DE0000F0086A34EF04F0030E07647EEF02F0BA
:1004EE00075E08380F0B086E074E0BEF03F0D8901F
:1004FE000832074E0BEF03F0D8900832074E0BEF81
:10050E0003F0D89008320BEF03F0030E07649DEF53
:10051E0002F0075E08380F0B086E0038F00B082645
:10052E0000380F0B006E074E0BEF03F0D890003221
:10053E000832074E0BEF03F0D89000320832074E08
:10054E000BEF03F0D890003208320BEF03F0030EDE
:10055E000764C5EF02F0075E08380F0B086E00380F
:10056E00F00B082600380F0B006E0138F00B00263A
:10057E0001380F0B016E074E0BEF03F0D8900132CE
:10058E0000320832074E0BEF03F0D89001320032E2
:10059E000832074E0BEF03F0D890013200320832CA
:1005AE000BEF03F0030E0764F6EF02F0075E083858
:1005BE000F0B086E0038F00B082600380F0B006E7C
:1005CE000138F00B002601380F0B016E0238F00BCC
:1005DE00012602380F0B026E074E0BEF03F0D89078
:1005EE000232013200320832074E0BEF03F0D89080
:1005FE000232013200320832074E0BEF03F0D89070
:10060E000232013200320832096A000E0EAEFFEFDE
:10061E0003F0081E001E011E021E082A00220122DF
:10062E000222FFEF03F00750D8A420EF03F034EFBF
:10063E0004F0096A02C00AF0028E068E0750035CAF
:10064E00076ED8B4F2EF03F0070E0764C0EF03F0A5
:10065E00075E0450096E0550046E0650056E066A5C
:10066E00074EF2EF03F0070E076495EF03F0075EF7
:10067E000450096E0550046E056A074EF2EF03F042
:10068E00070E076473EF03F0075E0450096E046AE9
:10069E00074EF2EF03F0070E07645AEF03F00AC09D
:1006AE0002F034EF04F0030E076465EF03F0075E0B
:1006BE0009380F0B096E074EF2EF03F0D89009328E
:1006CE00074EF2EF03F0D8900932074EF2EF03F027
:1006DE00D8900932F2EF03F0030E076484EF03F0B3
:1006EE00075E09380F0B096E0438F00B0926043823
:1006FE000F0B046E074EF2EF03F0D890043209325E
:10070E00074EF2EF03F0D89004320932074EF2EFA3
:10071E0003F0D89004320932F2EF03F0030E0764AF
:10072E00ACEF03F0075E09380F0B096E0438F00BBF
:10073E00092604380F0B046E0538F00B0426053815
:10074E000F0B056E074EF2EF03F0D8900532043210
:10075E000932074EF2EF03F0D89005320432093217
:10076E00074EF2EF03F0D890053204320932F2EF61
:10077E0003F0030E0764DDEF03F0075E09380F0B7D
:10078E00096E0438F00B092604380F0B046E053879
:10079E00F00B042605380F0B056E0638F00B0526F8
:1007AE0006380F0B066E074EF2EF03F0D8900632A6
:1007BE00053204320932074EF2EF03F0D8900632BA
:1007CE00053204320932074EF2EF03F0D8900632AA
:1007DE00053204320932086A000E0EAEFFEF03F046
:1007EE00091E041E051E061E092A042205220622C3
:1007FE0009500826045000220550012206500222FC
:10080E000EBE16EF04F0D8A025EF04F0023201322E
:10081E0000320832033E25EF04F02FEF04F0D8B07B
:10082E002AEF04F0000E081E001E011E021E082AEA
:10083E000022012202220A7E2AEF04F0010E0C6E23
:10084E0039DC36EF04F0020E0C6E34DC36EF04F0B9
:10085E00040E0C6E08DC36EF04F0000E0C6E120067
:10086E000B6A0A6A096A00500402F4CF09F0F3CF4A
:10087E0008F001500502F4CF0BF0F3CF0AF0005050
:10088E000502F3500926F4500A22E86A0B220150A1
:10089E000402F3500926F4500A22E86A0B2208C01B
:1008AE0000F009C001F00AC002F00BC003F0120004
:0E08BE000001B591C4C0CBF0EEDCB581120094
:1008CC00BB50010F006E016A000E0122BAC004F089
:1008DC00000E056EC6DF060E026E00C004F001C0ED
:1008EC0005F0025005E005320432059EFF0FFAD7E1
:1008FC00040E016E04C000F0015004E000360090BC
:10090C00FF0FFBD7300E0014036E04C000F005C0BF
:10091C0001F001320032019E01320032019E00C012
:0C092C00BEFF0F0EBD160350BD121200DE
:10093800939A939893909392939493968A9A8A9879
:100948008A968A948A928A9025EC00F025EC00F029
:1009580025EC00F08A828A808A8A1FEC00F08A9A45
:1009680025EC00F08A8A1FEC00F08A9A25EC00F04A
:100978008A8A1FEC00F08A9A25EC00F08A908A8A0D
:100988001FEC00F08A9A25EC00F08A8A1FEC00F030
:100998008A9A8A928A868A8A1FEC00F08A9A25ECBB
:1009A80000F08A968A808A8A1FEC00F08A9A8A90D8
:1009B8008A8A1FEC00F08A9A25EC00F08A8A1FECDC
:1009C80000F08A9A8A808A8A1FEC00F08A9A25ECBD
:1009D80000F08A908A8A1FEC00F08A9A8A868A84B4
:1009E8008A828A808A8A1FEC00F08A9A25EC00F0B5
:0609F8000001B5811200B0
:0A09FE009494BA840C0EBD1212008E
:100A08000900F5CFE6FF0006FBE10106F9E1120057
:100A180010D0800E0001BA6F1AD0C00EBA6F17D06E
:100A2800940EBA6F14D0D40EBA6F11D0800EBA6F6C
:100A38000ED00001BA51010AECE0BA51020AEDE009
:100A4800BA51030AEDE0BA51040AEDE0EFD7BB054D
:100A5800006EBA51002600C0BAF000C0CBF01EDC10
:100A6800B591BE6BBE51BC25E96E000EBD21EA6E84
:100A7800EE520BE0BE51BC25E96E000EBD21EA6EB8
:0E0A8800EECFC4F018DFBE2BEDD7B581120003
:080A9600BE6ABD98BD9A120072
:100A9E00FF0E0001B16FFF0EB26FFF0EB36FFF0EB0
:100AAE00B46FC26A891D006E0050C1160F0EC012BF
:060ABE00C08EC280120090
:100AC4000050086E0150006E016A026A036A0B6AE4
:100AD4000C6A960E036E0A6A00C001F008C000F0AA
:080AE400086A026A6BDC1200D3
:100AEC000001BC6BBC51BA25E96E000EBB21EA6E4D
:100AFC00EE520BE0BC51BA25E96E000EBB21EA6E3A
:0C0B0C00EECFC4F0D6DEBC2BEDD71200FB
:100B18000A6A0350D8A40A800750D8A40A820A5047
:100B2800D8B4EFEF05F0030AD8B4A8EF05F00AB07F
:100B3800A3EF05F006AEEDEF05F0EBEF05F002AE22
:100B4800EBEF05F0EDEF05F00250800B0A6E029E08
:100B58000650800B069E0A18D8B4B9EF05F00A5063
:100B6800D8B4EBEF05F0EDEF05F00750035CD8B40F
:100B7800C3EF05F0D8A0DFEF05F0E5EF05F006506C
:100B8800025CD8B4CDEF05F0D8A0DFEF05F0E5EFB3
:100B980005F00550015CD8B4D7EF05F0D8A0DFEF19
:100BA80005F0E5EF05F00450005CD8B4EFEF05F070
:100BB800D8B0E5EF05F00A52D8B4EDEF05F0EBEF49
:100BC80005F00A52D8B4EBEF05F0EDEF05F0D88048
:0E0BD8001200D8901200D880D88412001200AB
:100BE6000001C06BC16BBAC0C2F0BBC0C3F0800EBF
:100BF600BB19006E800E005C02E1000EBA5D0BE2CE
:100C0600010EC06F000EC16FBA510008C26FBBC0A3
:100C1600C3F0000EC357C2C0C4F0C3C0C5F0BCC009
:100C2600C6F0BDC0C7F091EC01F0060EBE6F000E17
:100C3600BF6F000E006EBF51005C02E1BE5100089E
:100C460019E2BE51BC25E16EBF51BD21E26E010E17
:100C5600BE5D006E000EBF59016E0050BC25E96EE8
:100C66000150BD21EA6EEECFE6FF010EBE5F000E1B
:100C7600BF5BDFD7BCC0E1FFBDC0E2FF200EE66E62
:100C8600C051C1111AE0BE6BBF6BBE51BC25E96EE7
:100C9600BF51BD21EA6EEE50200A03E1BE4BBF2BC9
:100CA600F4D7010EBE5F000EBF5BBE51BC25E16EE0
:0C0CB600BF51BD21E26E2D0EE66E120053
:100CC20000C008F00150006E016A026A036A0B6AF2
:100CD2000C6A016A026A036A960E036E0A6A00AE21
:100CE20079EF06F0081E001E082AD8B4002A0A8EE0
:100CF20000C001F008C000F0086A026AE0EC01F0EE
:020D02001200DD
:100D04000B6A0C6A0A6A0350D8B4B7EF06F00A9E5D
:100D1400028E860E035E03BE95EF06F0D8B495EFFF
:100D240006F0BAEF06F0036C080E035CD8A0A3EF3C
:100D340006F0036E0236026A0350D8A4D890ACEFD2
:100D440006F00350D8B4ACEF06F0D8900232032E6C
:100D5400A7EF06F00BBC02A0B7EF06F0D8A0B7EFE0
:100D640006F0022AD8B4C1EF06F0016AC7EF06F014
:100D74000B800BAECBEF06F0016ACBEF06F0010E51
:100D84000C6E19EC02F0CDEF06F0000E0C6ECDEFF8
:0C0D940006F0FF0E0C6E0250006E120004
:100DA000086A096A000E0762036455EF07F00250F3
:100DB00006180A6E075003267E0ED8A0E6EF06F04E
:100DC000035ED8B05AEF07F0EAEF06F0035ED8A052
:100DD0005FEF07F0028E068E02C00EF001C00BF02E
:100DE00000C00DF000500402F4CF0CF001500502D9
:100DF000F4CF00F0F3CF08F00402F3500C26F450C7
:100E00000822000E00220D500502F3500C26F4506B
:100E10000822000E002202500402F3500826F4506B
:100E2000002202500502016A000E0122F350002642
:100E3000F45001220D500602F3500826F45000220F
:100E4000026A000E012202220B500602F350002615
:100E5000F4500122000E02220E500602F350012629
:100E6000F450022202BE3DEF07F00836003601368C
:100E700002360306D8B45FEF07F050EF07F0D880D2
:100E8000800E08640030000E002201220222D8A049
:100E900050EF07F0023201320032034A5AEF07F0F6
:100EA0000AAE029E000E62EF07F0010E33EC00F076
:100EB00062EF07F0020E3AEC00F062EF07F0040E6A
:060EC0000EEC00F0120030
:080EC600067E27EC02F0120089
:100ECE000B6A0350D8B4ADEF07F002500A6E028ED3
:100EDE008E0E035E03AEB1EF07F0036C080E035CDB
:100EEE00D8A08CEF07F0036E013602C001F0026A43
:100EFE00080E035CD8A08CEF07F0036E0136016A72
:100F0E000350D8A4D89096EF07F00350D8B496EFBC
:100F1E0007F0D89002320132032E90EF07F00BBC8F
:100F2E0001A0A3EF07F0D8A0A3EF07F0012AD8B4D1
:100F3E00022A02BEC0EF07F00AAEC6EF07F0021E8D
:100F4E00011E012AD8B4022AC6EF07F0026A016A0E
:100F5E00C6EF07F00B800BAECAEF07F0026A0AAEBF
:100F6E00CAEF07F0FF0E026E016E0A360232CAEFAA
:100F7E0007F0010E0C6E19EC02F0CCEF07F0000E2C
:100F8E000C6ECCEF07F0FF0E0C6E0150006E02508F
:040F9E00016E1200CE
:100FA200C26A0001891D006E0050C1160F0EC012E8
:100FB200C08EBAC000F0003600900036009000509B
:100FC200C212C280DAEC01F0C282C2A201D0FDD705
:100FD200C4CF01F0006A00C0BBF001C0BCF0C35036
:100FE2000012000E011200C0BBF001C0BCF0C290A2
:100FF200000E0014026E0150800B036E000E0318E7
:1010020002E1000E021802E0BB6BBC6BBBC000F039
:06101200BCC001F0120059
:101018005EEC0CF0FF0E926E0F01386B89DC3BDD45
:101028000C0ECB6F52EC01F0BA80BA82630EBB6E25
:101038002EDD000E5F1802E1010E5E18D8A4C2D0A2
:10104800000E5D1802E1000E5C1854E10001010E6B
:10105800BA6F010EBB6F4C0EBC6F000EBD6FD8DCB3
:10106800CADC0F0EBA6F99DF00C05AF001C05BF0FE
:101078000F0EBA6F92DF00C067F001C068F01DDE86
:10108800800E046E480E056E7F0E066E7C0E076E8F
:1010980083DE19DF00C069F001C06AF000C0BAF051
:1010A80001C0BBF0AA0EBC6F000EBD6F98DD020E2A
:1010B800BA6F010EBB6FAA0EBC6F000EBD6FA8DC25
:1010C80069C0BAF066EC04F080A013D0010E5C6E23
:1010D800000E5D6E100E0B6E6C0E0C6E000E0D6E1B
:1010E8000D2EFED70C2EFCD70B2EFAD700000000D1
:1010F8000000A6D7010E0001CB6F52EC01F0000EE4
:101108005D1802E1010E5C1847E10001010EBA6F9B
:10111800010EBB6F600EBC6F000EBD6F79DC4AC05C
:10112800BAF04BC0BBF0AA0EBC6F000EBD6F57DD06
:10113800020EBA6F010EBB6FAA0EBC6F000EBD6F18
:1011480067DC190EBA6F000EBB6FCCDC0F0EBA6FDE
:1011580024DF00C04AF001C04BF00F0EBA6F1DDF4C
:1011680000C01EF001C01FF080A015D05C6A5D6A47
:10117800020E5E6E000E5F6E100E0B6E6C0E0C6E25
:10118800000E0D6E0D2EFED70C2EFCD70B2EFAD7A7
:10119800000000000000B3D780A013D0020E5E6EDE
:1011A800000E5F6E100E0B6E6C0E0C6E000E0D6E48
:1011B8000D2EFED70C2EFCD70B2EFAD70000000000
:1011C800000037D70001010ECB6F52EC01F0000E82
:1011D8005F1802E1020E5E18D8A431D2000E16186C
:1011E80002E1000E1518D8A4A7D080A008D0040EDC
:1011F8005E6E000E5F6E090E156E000E166E000113
:10120800100EBA6FCADE5ADC9A0E046E990E056E7D
:10121800790E066E7D0E076EBFDD5F0E046E070E3B
:10122800056E0E0E066E7C0E076E49DE4CDE00C0A3
:1012380017F001C018F0800E026E800E0118025CD3
:1012480002E1005028081FE2800E006E800E681927
:10125800005C02E16751000816E267C0BAF066EC6C
:1012680004F0010E0001675F000E685B030E0B6E51
:10127800080E0C6E770E0D6E0D2EFED70C2EFCD7B9
:101288000B2EFAD7E1D73C4A3D2A000E3D1802E161
:101298000A0E3C1806E1010E1E5E000E1F5A3C6A3B
:1012A8003D6A010EBA6F010EBB6F3E0EBC6F000E99
:1012B800BD6F0CEC05F0100EBA6F6FDE62EC05F036
:1012C8009A0E046E990E056E790E066E7D0E076EE7
:1012D80063DD5F0E046E070E056E0E0E066E7C0E45
:1012E800076EEDDDF0DD00C017F001C018F000C09A
:1012F800BAF001C0BBF0AA0EBC6F000EBD6F6FDC68
:10130800020EBA6F010EBB6FAA0EBC6F000EBD6F46
:101318000CEC05F0520E0B6E2B0E0C6E000E0D6EC3
:101328000D2EFED70C2EFCD70B2EFAD70000010E7F
:10133800156E000E166E52D70001010ECB6F52ECDF
:1013480001F0000E161802E1010E1518D8A47ED07F
:1013580080A008D0040E5E6E000E5F6E090E156E3A
:10136800000E166E100EBA6F18DE62EC05F09A0EBB
:10137800046E990E056E790E066E7D0E076E0CDDF5
:101388005F0E046E070E056E0E0E066E7C0E076E5F
:1013980096DD99DD00C017F001C018F0800E026ECE
:1013A800800E0118025C02E1005028081FE2800E3E
:1013B800006E800E6819005C02E16751000816E2B1
:1013C80067C0BAF066EC04F0010E0001675F000E1A
:1013D800685B030E0B6E080E0C6E770E0D6E0D2EED
:1013E800FED70C2EFCD70B2EFAD7E1D7010EBA6F19
:1013F800010EBB6F200EBC6F000EBD6F0CEC05F02C
:101408001EC0BAF01FC0BBF0AA0EBC6F000EBD6FA5
:10141800F3EC05F0020EBA6F010EBB6FAA0EBC6F9B
:10142800000EBD6F0CEC05F0520E0B6E2B0E0C6E01
:10143800000E0D6E0D2EFED70C2EFCD70B2EFAD7F4
:101448000000020E156E000E166E7BD7010ECB6FD4
:1014580052EC01F0000E161802E1020E1518D8A47D
:10146800E9D080A008D0040E5E6E000E5F6E090EF3
:10147800156E000E166E100EBA6F8FDD62EC05F059
:101488009A0E046E990E056E790E066E7D0E076E25
:1014980083DC5F0E046E070E056E0E0E066E7C0E64
:1014A800076E0DDD10DD00C017F001C018F0800ECA
:1014B800026E800E0118025C02E1005028081FE24B
:1014C800800E006E800E6819005C02E1675100080A
:1014D80016E267C0BAF066EC04F0010E0001675F1F
:1014E800000E685B030E0B6E080E0C6E770E0D6E09
:1014F8000D2EFED70C2EFCD70B2EFAD7E1D74AC0FB
:1015080000F04BC001F061EC06F0330E046E330EB0
:10151800056E330E066E7E0E076E3EDC00C0B6F01A
:1015280001C0B7F002C0B8F003C0B9F01EC000F0A7
:101538001FC001F061EC06F000C004F001C005F026
:1015480002C006F003C007F0B6C000F0B7C001F053
:10155800B8C002F0B9C003F08CEC05F0010ED8B0A9
:10156800000E006E00520BE0010EBA6F010EBB6F49
:101578002C0EBC6F000EBD6F0CEC05F04BD04AC0B2
:1015880000F04BC001F061EC06F0CD0E046ECC0EFD
:10159800056E4C0E066E7D0E076ED0EC06F000C090
:1015A800B6F001C0B7F002C0B8F003C0B9F01EC071
:1015B80000F01FC001F061EC06F000C004F001C0AB
:1015C80005F002C006F003C007F0B6C000F0B7C0CF
:1015D80001F0B8C002F0B9C003F08CEC05F0010EC0
:1015E800D8B0000E006E00520BE0010EBA6F010E6B
:1015F800BB6F6B0EBC6F000EBD6F0CEC05F00AD014
:10160800010EBA6F010EBB6F8A0EBC6F000EBD6F64
:101618000CEC05F0520E0B6E2B0E0C6E000E0D6EC0
:101628000D2EFED70C2EFCD70B2EFAD70000156A0C
:10163800166A10D7010ECB6F52EC01F0C8D5000125
:10164800010ECB6F52EC01F0156A166A000E5F1896
:1016580002E1040E5E18D8A4DAD00001000EA31926
:1016680002E1000EA21932E1010EBA6F010EBB6F42
:10167800960EBC6F000EBD6F0CEC05F05AC000F062
:101688005BC001F061EC06F0CD0E046ECC0E056E69
:101698004C0E066E7C0E076ED0EC06F082EC06F05F
:1016A80000C0BAF066EC04F0290E0B6E960E0C6EB4
:1016B8007F0E0D6E0D2EFED70C2EFCD70B2EFAD7F3
:1016C800010E0001A26F000EA36FC7D7010ECB6FEA
:1016D80052EC01F00001000EA31902E1010EA2195B
:1016E800D8A481D0100EBA6F58DC62EC05F09A0EBF
:1016F800046E990E056E790E066E7D0E076ED0EC9F
:1017080006F05F0E046E070E056E0E0E066E7C0E5A
:10171800076E63EC07F067EC07F000C017F001C034
:1017280018F0010EBA6F010EBB6FA40EBC6F000E4D
:10173800BD6F0CEC05F017C0BAF018C0BBF0AA0ECC
:10174800BC6F000EBD6FF3EC05F0AA0EBA6F000E69
:10175800BB6F76EC05F01E504A5C876F1F504B58E4
:10176800886F020EBA6F010EBB6F7E0EBC6F000E43
:10177800BD6F0CEC05F087C0BAF088C0BBF0AA0EAC
:10178800BC6F000EBD6FF3EC05F0AA0EBA6F000E29
:10179800BB6F76EC05F0030E0A6E610E0B6EC30E7E
:1017A8000C6E8E0E0D6E0D2EFED70C2EFCD70B2E4A
:1017B800FAD70A2EF8D700005AC000F05BC001F033
:1017C80061EC06F0CD0E046ECC0E056E4C0E066E66
:1017D8007C0E076ED0EC06F082EC06F000C0BAF082
:1017E80066EC04F077D780A011D05E6A5F6A100EAD
:1017F8000B6E6C0E0C6E000E0D6E0D2EFED70C2EA1
:10180800FCD70B2EFAD70000000000001FD7010EEE
:0E1818000001CB6F52EC01F01DEF08F0FFD77E
:1018BC0010EE15F0950E006E010E016E260EF66EF2
:0E18CC00180EF76E000EF86E04EC05F0120018
:021826000000C0
:021828000000BE
:05182A00206D696E0055
:02182F000000B7
:0C1831005469656D706F205265732E00C5
:10183D0056616D6F7320496E696369616E646F00E7
:02184D00000099
:0C184F0054656D70657261747572610003
:02185B0000008B
:0E185D005365742056656C6F636964616400A6
:02186B0000007B
:02186D00000079
:02186F00010076
:071871005469656D706F0002
:0218780000006E
:02187A0000006C
:10187C0056616D6F7320706F72206C61204D6974AE
:03188C0061640094
:09188F005469656D706F3A200088
:0218980000004E
:01189A000F3E
:0C189B005369207365205075656465007A
:0C18A70046454C49434944414445530028
:0218B300000033
:0618B50054656D703A005D
:020000040030CA
:0D000100231F3CFFBF81FF0FC00FE00F4029
:00000001FF
